:1000000014C100000C94B62B0C948B2B0C94602B19
:100010000C94352B0C940A2B0C94DF2A0C94B42AE4
:100020000C94892A33C1000031C100002FC10000A7
:100030002DC100000C94E12B29C1000027C1000054
:1000400025C1000023C1000021C100001FC1000024
:100050001DC100001BC1000019C100000C943F2A03
:1000600015C100000C94A42D0C947A2D0FC1000032
:100070000DC100000BC1000009C1000007C1000054
:1000800005C1000003C1000001C10000FFC0000065
:100090000C94502D0C94262DF9C000000C941B29B3
:1000A000F5C00000F3C00000F1C00000EFC0000088
:1000B000EDC00000EBC00000E9C00000E7C0000098
:1000C000E5C00000E3C00000E1C000000C94FC2C7F
:1000D0000C94D22CDBC000000C94A82C0C947E2C29
:1000E000D5C000000200000A0B02090C0D0E080723
:1000F00003040100000000000000000000000000F8
:1001000000000000000000000000000000000000EF
:1001100000121110000000000000000000000000AC
:100120000000000000000000000000005EBCE26172
:100130003FDD83C29C7E20A3FD1F41009D23BE4660
:10014000DB65F88C11AF32CA57E974000022002534
:100150000028002B002E00310034000201000005B1
:100160000108010B0100002100240027002A002DB6
:10017000003000330001010000040107010A010002
:100180000020002300260029002C002F0032000050
:100190000100000301060109010505050507050821
:1001A000080808020202020A0A08080404040401FA
:1001B000010101010101010303030303030303041C
:1001C0000707070C0C0C0C0C0C0C0C0202020206AC
:1001D000060606060606060B0B0B0B0B0B0B0B019C
:1001E0000210202008081020401020408002010248
:1001F0000108040201010204081020408080402010
:10020000100804020180040201804020100804024A
:1002100001080402010102040810204080010204C8
:100220000810204080009D2E8F3B11241FBECFEF71
:10023000D1E2DEBFCDBF00E00CBF15E0A0E0B2E030
:10024000EEEEF2E800E00BBF02C007900D92AC3A70
:10025000B107D9F72AE0ACEAB5E001C01D92A53498
:10026000B207E1F711E0C4E1D1E000E006C0219758
:100270000109802FFE010E94EC3EC331D10780E0CE
:100280000807A9F70E9439300C946641B9CEE4E51D
:10029000F9E0A089B18982E08C93A485B5851C9290
:1002A000A685B7858FEC8C93108EA489B58986E0DE
:1002B0008C93A289B3898C9180618C93A289B38934
:1002C0008C9188608C93A289B3898C9180688C937F
:1002D0000288F389E02D80818F7D808308958CBD15
:1002E0009DBD0895EF92FF920F931F93CF93DF93DD
:1002F00000D000D01F921F92CDB7DEB729833A837A
:100300004B83252F7E838F834E815F81822F90E0E8
:1003100070E0062F0150110BF801272F30E02E1747
:100320003F0744F42F543D4FD9012C91820F911D6A
:100330007F5FF3CF633030F09A0123703327232B94
:1003400009F401966DE671E0469F9001479F300DDC
:10035000569F300D1124215933424D5C574056951C
:10036000479556954795240F351F280F391FA8E14B
:10037000B0E00E94BD3D29817B018C01E20EF11CA1
:10038000011D111DA8019701ACE3B0E00E948B3D57
:100390002A817B018C01E20EF11C011D111DA801B7
:1003A00097010E948B3D2B81620F711D811D911D54
:1003B00060587C4B8249974C28960FB6F894DEBF64
:1003C0000FBECDBFDF91CF911F910F91FF90EF90A6
:1003D000089520E3FC0120833296862F82958F704A
:1003E0006F706A3030F4605D6293682F8111F5CFD1
:1003F0000895695CF9CFFC01818D928D089508956F
:100400000895089508950895FC018EED97E0968370
:10041000858381E08483838310821182128283E04A
:100420008783089590E020911107233339F40C96C7
:10043000982F990F990F990F80E008954896F8CF5B
:10044000CF93DF931F92CDB7DEB76983DC01ED91C7
:10045000FC910280F381E02D41E050E0BE016F5F2E
:100460007F4F19950F90DF91CF910895CF93DF9330
:100470001F92CDB7DEB76983DC01ED91FC9102805C
:10048000F381E02D41E050E0BE016F5F7F4F199591
:100490000F90DF91CF910895FC019485FB01848535
:1004A000981303C081E0983008F080E00895CF935E
:1004B000DF931F92CDB7DEB76983DC01ED91FC912C
:1004C0000280F381E02D41E050E0BE016F5F7F4F7D
:1004D00019950F90DF91CF910895FC01768765877C
:1004E0000895DC01ED91FC91068CF78DE02D1995B6
:1004F00091E089270895862F089581E08627089541
:1005000021E0FC018485883008F020E0822F0895E6
:10051000FC01848595850895FC0184899589089559
:100520002BE133E0FC0131832083FB0140895189B9
:1005300062897389FC0142835383648375830895C0
:10054000DC01ED91FC91048CF58DE02D1994FC01FA
:1005500020812EBD9B012150310941F051810DB404
:1005600007FEFDCF4EB55EBD4193F5CF61507109D9
:10057000860F971F0DB407FEFDCF2EB5FC0120831B
:100580000895E0910E07F0910F07808190910D077B
:10059000892B80830895E0910E07F0910F079081D9
:1005A00080910D07809589238083089508958EBDDD
:1005B00000000DB407FEFDCF8EB50895AF92BF9237
:1005C000CF92DF92EF92FF920F931F93CF93DF931F
:1005D00000D000D01F921F92CDB7DEB78C017B01F7
:1005E0006A01809111078333B1F45801A40EB51E3E
:1005F000A016B10609F463C0CEDF80EFD8DF812FEB
:10060000D6DF802FD4DF0F5F1F4FF70181917F016D
:10061000CEDFB7DFEDCF5B01A40EB51E8433A9F4A6
:10062000BADF19830A838D2D80688B83CC8264E0C6
:1006300070E0CE0101968BDFAE14BF0409F43EC01A
:10064000F70181917F01B3DFF7CFA5DF0F3F1105E0
:1006500009F028F419820A8384E08B830CC017FD0B
:1006600017C019820A8333E0169507953A95E1F78A
:10067000007E0C600B8386E0C816D10490F5F7016C
:10068000DE011496EA15FB0599F081918D93FACF5E
:10069000C80126E0969587952A95E1F7807E198313
:1006A0000A830115104C10F48461D7CF8C61D5CF2B
:1006B000B6016D5F7F4FCE01019649DF62DFC60153
:1006C00028960FB6F894DEBF0FBECDBFDF91CF9155
:1006D0001F910F91FF90EF90DF90CF90BF90AF9060
:1006E000089563E070E0CE01019631DFF70181915A
:1006F0007F015DDFAE14BF04C9F7E0CFDA01E091FE
:100700001207F0E0FE2FEE27E60FF71F90E0982F7C
:100710008827A901BD018E0F9F1F50CFCF93DF9374
:100720001F921F92CDB7DEB779836A8322E030E053
:10073000AE014F5F5F4F60E170E0E0DF0F900F9020
:10074000DF91CF910895CF93DF931F921F92CDB782
:10075000DEB779836A8322E030E0AE014F5F5F4FFE
:1007600064E070E0CBDF0F900F90DF91CF910895A0
:10077000FF920F931F93CF93DF93EB01FC01178A36
:10078000168A2A81211109C02B81211106C02C81D2
:10079000211103C02D812223E9F041155105D1F02B
:1007A0008A01FC01F08C80E591E099DDAE014E5F9D
:1007B0005F4F24E030E06CE070E08F2D9FDFB801E8
:1007C0008F2DACDF81E090E0DF91CF911F910F91F1
:1007D000FF90089580E0F7CFCF93DF931F92CDB7BE
:1007E000DEB72091120730E0322F2227260F371F65
:1007F00090E0982F8827498341E050E0BE016F5F69
:100800007F4F820F931FDADE0F90DF91CF91089513
:10081000CF93DF931F92CDB7DEB7898341E050E0DD
:10082000BE016F5F7F4F90E080E0C8DE0F90DF91E8
:10083000CF910895DC0180E0615090F09D91982760
:10084000E92FEF70F0E0E55DFE4F2491E92FE2958E
:10085000EF70F0E0E55CFE4FE491822F8E27ECCF45
:100860000895DC012C911196ED91FC91F894818111
:10087000822B81839281322F30959323928387E05C
:1008800090E00197F1F781818323818383E290E0F7
:100890000197F1F790817894EFECF0E03197F1F760
:1008A000922381E009F480E00895FC0190810180A9
:1008B000F281E02D292F209560FF14C0F8948281E9
:1008C000822382838181892B8183A3E2B0E0119707
:1008D000F1F78281982B9283789487ED90E00197CD
:1008E000F1F70895F8948281822382838181892B94
:1008F0008183AFEFB0E01197F1F78281982B92835B
:1009000078948FE090E0EBCFDF92EF92FF920F931D
:100910001F93CF93DF93EC01D62EE42E08E010E076
:10092000FF24F39461E08D2D8F2109F460E0CE0166
:10093000BCDFFF0C01501109A9F7E11010C0F894B9
:10094000E981FA8191818881809589238183E98178
:10095000FA81928188818095892382837894DF91BE
:10096000CF911F910F91FF90EF90DF900895EF923C
:10097000FF920F931F93CF93DF938C017B0140E095
:1009800065E5C2DFE70188E0E80EF11C699140E00F
:10099000C801BADFCE15DF05C9F7DF91CF911F91EE
:1009A0000F91FF90EF900895FC0190810180F281FA
:1009B000E02DF8948181292F2095822381837894DA
:1009C0003DE743E050E0315029F1DA011197F1F7AA
:1009D00080818923C1F3F89482818223828381817B
:1009E000892B81837894ABE7B7E01197F1F7F894FE
:1009F000818182238183A3E1B1E01197F1F78081A6
:100A0000982381E009F080E07894E3E6F6E03197FE
:100A1000F1F7089580E008956F927F928F929F92F0
:100A2000AF92BF92CF92DF92EF92FF920F931F93FC
:100A3000CF93DF93EC017B018A018E819F81B4DF2C
:100A4000811102C090E032C0B7018E819F818FDF9B
:100A500040E06EEB8E819F8157DF7801680189E06D
:100A6000C80ED11CAE80BF8088E0882E912C712CDE
:100A700066246394C501F5DE81117628660CE1E0F9
:100A80008E1A9108B9F7F70171927F01EC15FD05F7
:100A900049F78E819F8188DF8130A1F668E0C80127
:100AA000C9DE91E0F80120852813CCCF892FDF9192
:100AB000CF911F910F91FF90EF90DF90CF90BF905B
:100AC000AF909F908F907F906F900895CF93DF931A
:100AD00000D000D000D0CDB7DEB7AE014F5F5F4F82
:100AE000BC018FE09AE098DF882331F08D818F334D
:100AF000A9F020F48F31A1F080E007C08F3521F0FC
:100B00008F37D1F78CE001C08BE029960FB6F894AF
:100B1000DEBF0FBECDBFDF91CF9108958AE0F5CF44
:100B200089E0F3CF08950895E09149068091480641
:100B3000E81730F4F0E0E85DF94F808190E0089527
:100B40008FEF9FEF089590914906809148062FEF0F
:100B50003FEF981748F4E92FF0E0E85DF94F208166
:100B600030E09F5F90934906C9010895809148063F
:100B700090914906891B990B089585ED8093BC00DF
:100B80008091BC0084FDFCCF1092700608952091E6
:100B90000306260F3327331F21323105ECF4209151
:100BA0007006FC0190E080E0243069F082E0089556
:100BB000A09103062191AC014F515A4FA40FB52FBC
:100BC000B11D2C930196861798F380910306680F48
:100BD0006093030680E0089581E00895CF92DF924C
:100BE000EF92FF920F931F93CF93DF937C01CB0182
:100BF0008A0120917106222389F0EB016B01C40E5A
:100C0000D51ECC15DD0561F06991D701ED91FC9100
:100C10000190F081E02DC7011995F3CF642FB7DF64
:100C2000C801DF91CF911F910F91FF90EF90DF905E
:100C3000CF900895CF93DF931F92CDB7DEB769832E
:100C4000209171062223F9F020919406203258F069
:100C500021E030E0FC013383228390E080E00F90BC
:100C6000DF91CF91089580917206E82FF0E0ED5862
:100C7000F94F998190838F5F8093720680939406D9
:100C800081E090E0ECCF61E0CE01019680DFF8CF0B
:100C9000CF93FC01C48121E020937106C093930699
:100CA00010927206109294068385682B81E797E074
:100CB000C1DF90919406913208F03FC08091700698
:100CC0008111FCCF82E08093700681E080936F06F3
:100CD0008FEF80936E0610926D0690936C06A3E7DB
:100CE000B6E0ECE4F6E080E098132FC010924B06DB
:100CF00080914B06CC0FC82BC0934B0680914A06BF
:100D0000813039F510924A0680914B068093BB00E2
:100D10008091BC0083FDF8CF85EC8093BC0080916E
:100D200070068230E1F380916E068F3F31F0809142
:100D30006E06803211F080916E061092720610924B
:100D4000940610927106CF9108952D9121938F5F93
:100D5000CBCF85EEE2CF8150823108F05AC0E82F28
:100D6000F0E08827E954F94F8F4F0C94EC3ED706FA
:100D7000DB06C906CF06D3060907DE06E406E80649
:100D8000EE06F206F606FC060007090704070A0746
:100D90000E07809180008F77809380000895809166
:100DA00080008F7DF9CF80918000877FF5CF84B55B
:100DB0008F7784BD089584B58F7DFBCF8091B0007F
:100DC0008F778093B00008958091B0008F7DF9CF28
:100DD000809190008F77809390000895809190008B
:100DE0008F7DF9CF80919000877FF5CF8091A00013
:100DF0008F778093A00008958091A0008F7DF9CF18
:100E00008091A000877FF5CF809120018F7780931C
:100E100020010895809120018F7DF9CF80912001DC
:100E2000877FF5CFCF93DF93282F30E0F901EB5187
:100E3000FF4F8491F901E152FE4FD491F901E75639
:100E4000FE4FC491CC2399F0811185DFEC2FF0E0A7
:100E5000EE0FFF1FE158FE4FA591B491EC91ED23E9
:100E600081E090E009F480E0DF91CF91089580E087
:100E700090E0FACF1F93CF93DF93282F30E0F90152
:100E8000EB51FF4F8491F901E152FE4FD491F901EA
:100E9000E756FE4FC491CC23A1F0162F81115BDFE2
:100EA000EC2FF0E0EE0FFF1FE55BFE4FA591B49134
:100EB0008FB7F894EC91111108C0D095DE23DC9324
:100EC0008FBFDF91CF911F910895DE2BF8CFCF9385
:100ED000DF9390E0FC01E152FE4F249187569E4F34
:100EE000FC0184918823C9F090E0880F991FFC01D0
:100EF000EB59FE4FA591B491FC01E55BFE4FC59106
:100F0000D49161110DC09FB7F8948C9120958223E4
:100F10008C938881282328839FBFDF91CF910895E8
:100F2000623051F49FB7F8943C91822F80958323CF
:100F30008C93E8812E2BEFCF8FB7F894EC912E2B6A
:100F40002C938FBFEACF8091310A9091320A94316D
:100F5000E1F48531D1F481E080933A0A61E084E1E3
:100F600089DF61E085E186DF8091B9008E7F809323
:100F7000B9008091B9008D7F8093B9008CE0809397
:100F8000B80085E08093BC00089510923A0A61E0B1
:100F90009ECFCF93DF93EC0160E0898198DF61E021
:100FA000888168DF89813EDF0197E1F360E0888115
:100FB000DF91CF915FCFCF93DF93EC0161E0898127
:100FC00086DF60E0898156DF61E0888153DF61E080
:100FD000898150DF60E08981DF91CF9178CF3FB781
:100FE000F8948091DD059091DE05A091DF05B09128
:100FF000E00526B5A89B05C02F3F19F00196A11D5D
:10100000B11D3FBFBA2FA92F982F8827BC01CD0152
:10101000620F711D811D911D42E0660F771F881FB1
:10102000991F4A95D1F708958F929F92AF92BF92E0
:10103000CF92DF92EF92FF926B017C01D0DF4B01E8
:101040005C01C114D104E104F104B1F0C8DF6819F6
:1010500079098A099B09683E73408105910588F3E7
:1010600021E0C21AD108E108F10888EE880E83E079
:10107000981EA11CB11CE5CFFF90EF90DF90CF90A0
:10108000BF90AF909F908F9008952FB7F894609184
:10109000D9057091DA058091DB059091DC052FBFB1
:1010A00008958F929F92AF92BF92CF92DF92EF926C
:1010B000FF92CF93DF93EC018E819F8175DC40E03E
:1010C0006CEC8E819F8120DC488164E48E819F815D
:1010D0001BDC8A81882359F1E981E9508EEEC82E04
:1010E00082E0D82EE33038F4F0E0EE0FFF1FE35833
:1010F000FD4FC080D1808B81882321F188818111AF
:1011000021C0C3DF4B015C010D2C000CEE08FF0871
:101110008E819F81A6DB813051F0B7DF6C197D098C
:101120008E099F09681579058A059B0588F3DF916B
:10113000CF91FF90EF90DF90CF90BF90AF909F90B6
:101140008F900895B601DD0C880B990BDF91CF913C
:10115000FF90EF90DF90CF90BF90AF909F908F90D7
:1011600063CF08950895DC01ED91FC910190F08129
:10117000E02D1994DB0114964D915C9115976D91BA
:101180007C91DC01ED91FC910280F381E02D1994BA
:10119000AF92BF92CF92DF92EF92FF920F931F9385
:1011A000CF93DF936C017B018B01040F151FEB01C3
:1011B0005E01AE18BF08C017D10759F06991D6017A
:1011C000ED91FC910190F081E02DC6011995892BDC
:1011D00079F7C501DF91CF911F910F91FF90EF90AB
:1011E000DF90CF90BF90AF900895FC01A089B189A6
:1011F0008C91A689B78982FD0FC09C91818D8F5FEC
:101200008F73228D821749F0A18DAE0FBF2FB11DB4
:101210005D969C93818F08958C910895FC01538D68
:10122000448D252F30E0842F90E0821B930B5417C0
:1012300010F0CF96089501970895FC01918D828D4D
:10124000981761F0A28DAE0FBF2FB11D5D968C91E6
:10125000928D9F5F9F73928F90E008958FEF9FEF25
:101260000895FC01918D828D981731F0828DE80FE1
:10127000F11D858D90E008958FEF9FEF0895FC019B
:10128000918D228D892F90E0805C9F4F821B910968
:101290008F73992708958DE797E0F1DF21E0892B7F
:1012A00009F420E0822F08958AE198E0E8DF21E048
:1012B000892B09F420E0822F089587EB98E0DFDF87
:1012C00021E0892B09F420E0822F089584E599E03C
:1012D000D6DF21E0892B09F420E0822F0895FC015C
:1012E000A48DA80FB92FB11DA35ABF4F2C91848D87
:1012F00090E001968F739927848FA689B7892C93E4
:10130000A089B1898C91837080648C93938D848D36
:10131000981306C00288F389E02D80818F7D808339
:101320000895EF92FF920F931F93CF93DF93EC01F9
:1013300081E0888F9B8D8C8D98131AC0E889F9897C
:10134000808185FF15C09FB7F894EE89FF8960837F
:10135000E889F98980818370806480839FBF81E000
:1013600090E0DF91CF911F910F91FF90EF90089542
:10137000F62E0B8D10E00F5F1F4F0F731127E02E1D
:101380008C8D8E110BC00FB607FCFACFE889F98956
:10139000808185FFF5CFCE01A2DFF2CFEB8DEC0F80
:1013A000FD2FF11DE35AFF4FF0829FB7F8940B8F8A
:1013B000EA89FB8980818062D0CFCF93DF93EC01F3
:1013C000888D8823B1F0AA89BB89E889F9898C9135
:1013D00085FD03C0808186FD0CC00FB607FCF7CFEA
:1013E0008C9185FFF2CF808185FFEDCFCE0177DF35
:1013F000EACFDF91CF91089580E090E0892B21F032
:1014000065DF81110E94000080E090E0892B21F0CF
:1014100054DF81110E94000080E090E0892B21F0D0
:1014200043DF81110E94000080E090E0892B21F0D1
:1014300032DF81110C940000089590E080E008955F
:10144000BF92CF92DF92EF92FF920F931F93CF93B1
:10145000DF93EC01B62EC72E8D85811104C0CE011D
:10146000A3DA81110EC01B861D861C8680E0DF91E9
:10147000CF911F910F91FF90EF90DF90CF90BF9091
:10148000089540E060EFCE013FDA01E0E12CD12C7D
:1014900011E0CE01E6D9F82ECE01E3D991E0F912A0
:1014A00018C0813099F51134F0F2DB86D11002C0FA
:1014B00081E08D878B818823B1F22396EB2DFC2D63
:1014C000CF01089629912193E817F907D9F781E010
:1014D000CECFEE2DF0E0F8120FC08B851817A0F4D8
:1014E000DE01AE0FBF1F13968C91802379F4F12C8F
:1014F000193008F41C87D12EEC0FFD1F8381902F2B
:101500009095892383830AC08113F1CFFE01EE0DEC
:10151000F11D8381802B8383FF24F3946F2DCE01F3
:10152000C4D91F5F000F11F4E39401E087E08E152A
:1015300008F0AFCFB8CFDF92EF92FF920F931F93D7
:10154000CF93DF937C018B01D42EDC011696ED91B5
:10155000FC911386158614861286118610861782D2
:101560001682158214821382C0E0B801F7018681C9
:10157000978166DFD82F882329F0DC1629F0CF5F0A
:10158000DC1698F7D0E008C067E0C80153D9D8014D
:1015900017969C918913F3CF8D2FDF91CF911F91D7
:1015A0000F91FF90EF90DF9008950F931F93CF93CB
:1015B000DF93CDB7DEB761970FB6F894DEBF0FBEED
:1015C000CDBF8C0140E0BE01665F7F4FB4DF81116B
:1015D0000FC060E070E08EEF92EC61960FB6F89469
:1015E000DEBF0FBECDBFDF91CF911F910F91089548
:1015F000AE014F5F5F4FBE01665F7F4FC8010CDADF
:10160000882339F36A8170E0762F6627770F770F8A
:10161000770F298148E0249F90011124262B372B36
:101620008A858031D1F4688570E08F81AB01481BD9
:101630005109CA019695982F8827979587950E94FA
:10164000D93ECB014097B90153E0660F771F5A95F9
:10165000E1F760789C01260F371F213854EE3507DB
:101660000CF4B7CFB901330F880B990B0E945C3C87
:1016700020E030E040E05CE30E94BB3CAECF0F9343
:101680001F93CF93DF93082F162FD42FC8E06D2F11
:10169000661F6627661F802FEDDBDD0F61E0812F5F
:1016A000E9DB60E0812FE6DBC15089F7DF91CF9164
:1016B0001F910F9108951F93CF93DF93EC01162F85
:1016C00061E0898104DC412F68818981DF91CF91BC
:1016D0001F91D5CF1F93CF93DF93EC01162F61E0BD
:1016E0008981F5DB61E08981C5DB61E08881C2DB4E
:1016F00060E08981BFDB60E08881BCDB412F6881CD
:101700008981DF91CF911F91BACF0F931F93CF9310
:10171000DF93FC012185222359F184EE8093BC00E4
:101720008091BC0087FFFCCF80ED8093BB0084ECF0
:101730008093BC008091BC0087FFFCCF6093BB000E
:1017400084EC8093BC008091BC0087FFFCCF409369
:10175000BB0084EC8093BC008091BC0087FFFCCF71
:1017600084E98093BC00DF91CF911F910F91089580
:10177000142F062FEC0160EDADDFCE010ADC602FE7
:10178000CE0199DFCE0105DC612FCE0194DFCE01C1
:1017900000DCCE01DF91CF911F910F910CCCFF9215
:1017A0000F931F93CF93DF93683178F54C3368F52F
:1017B0002C3358F5122F042FEC018AE0F82E862FD7
:1017C0006F2D0E94CD3E8295807F482F490F62E0A9
:1017D000CE019BDF802F6F2D0E94CD3E8295807FB2
:1017E000482F490F61E0CE0190DF812F6F2D0E94BD
:1017F000CD3E8295807F482F490F60E0CE01DF917A
:10180000CF911F910F91FF9080CFDF91CF911F91CA
:101810000F91FF9008959F92AF92BF92CF92DF9267
:10182000EF92FF920F931F93CF93DF93CDB7DEB765
:1018300060970FB6F894DEBF0FBECDBF8C01CE010E
:1018400009960E940402F8018185882309F4AFC03B
:1018500084EE8093BC008091BC0087FFFCCF80EDBC
:101860008093BB0084EC8093BC008091BC0087FF18
:10187000FCCF1092BB0084EC8093BC008091BC0034
:1018800087FFFCCF84EE8093BC008091BC0087FF73
:10189000FCCF81ED8093BB0084EC8093BC008091F1
:1018A000BC0087FFFCCFF8013296C801099634ECE2
:1018B0003093BC002091BC0027FFFCCF2091BB00DF
:1018C00021938E179F07A1F784E88093BC00809135
:1018D000BC0087FFFCCF84E98093BC00F8018281C3
:1018E000982F929597703AE08F70939F800D1124F6
:1018F0008B878381982F929597708F70939F800D1F
:1019000011248A874481242F2F70842F90E047FF71
:10191000B2C045FB882780F9FCE08F9F200D112481
:101920002987F8018581888B8681282F2295277049
:101930009AE08F70299F800D11248C878781282F32
:10194000229527708F70299F800D11248D878085A7
:10195000282F22952F708F70299F800D112490E0E1
:101960008053984F9F878E8788E0FE013996DE016D
:10197000119601900D928A95E1F729813A814B8168
:101980005C816D817E818F81988560960FB6F89419
:10199000DEBF0FBECDBFDF91CF911F910F91FF90A2
:1019A000EF90DF90CF90BF90AF909F90089560ED43
:1019B000C80190DEC801EDDA60E0C8017CDEC80134
:1019C000E8DA61EDC80186DEC801E3DA5801F2E029
:1019D000AF0EB11CF12CE12C60E0F801818177DAC7
:1019E00057E0C52ED12C912C61E0F801808142DABC
:1019F000F801818117DA99270C2C01C0880F0A940D
:101A0000EAF7982A60E0F801808134DAF1E0CF1A31
:101A1000D10850F7F50191925F01F801818161E0F1
:101A2000F6E0EF16F10401F152DA60E0F80180818E
:101A300021DA60E0F80181811DDA61E0F80180813E
:101A400019DA60E0F801808115DA60E0F80181813F
:101A50003EDAFFEFEF1AFF0A87E0E816F10409F01B
:101A6000BBCFC801A8DA3ACF32DA60E0F801808152
:101A700001DA61E0DFCF44E0959587954A95E1F77B
:101A80008370839F200D11244BCF0F931F93CF930F
:101A9000DF93CDB7DEB766970FB6F894DEBF0FBE03
:101AA000CDBF8C018EE0E9E3F2E0DE0111960190FA
:101AB0000D928A95E1F7CE010F960E940402C801AB
:101AC000AADE292F2150330BF901EE0FFF1F81E011
:101AD00090E08C0F9D1FE80FF91F80819181669621
:101AE0000FB6F894DEBF0FBECDBFDF91CF911F912F
:101AF0000F9108950F931F93CF93DF9300D000D0E1
:101B00001F921F92CDB7DEB78C01CE0101960E94C5
:101B10000402C80180DE3A834B8380E32A3028F038
:101B2000822F6AE00E94CD3E805D809320023AE0E1
:101B3000822F632F0E94CD3E905D909321028AE315
:101B4000809322022A8180E32A3020F0822F0E9493
:101B5000CD3E805D809323023AE0822F632F0E9466
:101B6000CD3E905D909324028AE3809325022B81E1
:101B700080E32A3020F0822F0E94CD3E805D80934A
:101B80002602822F6AE00E94CD3E905D909327024C
:101B90001092280280E292E028960FB6F894DEBFF9
:101BA0000FBECDBFDF91CF911F910F9108950F937D
:101BB0001F93CF938C01C62F6BD86C2F6460C80124
:101BC00067D86C2F6B7FC80163D883EC90E00197D6
:101BD000F1F7CF911F910F9108950F931F93CF931A
:101BE000DF938C01D62FC42F607F642BE0DF80E170
:101BF000D89FB00111246C2BC801DF91CF911F91A8
:101C00000F91D5CFCF93DF93823028F09091080ABF
:101C100098609093080A80930B0A62E370E080E07A
:101C200090E002DA60910E0A83E09AE031D868EE23
:101C300073E080E090E0F8D960E383E09AE0B7DFFA
:101C4000CBE4D6E4CE010197F1F760E383E09AE0BC
:101C5000AEDF2197F1F760E383E09AE0A8DF83E548
:101C600092E00197F1F760E283E09AE0A0DF6091F3
:101C7000080A606240E083E09AE0AFDF84E080938E
:101C8000090A40E06CE083E09AE0A7DF40E061E011
:101C900083E09AE0A2DFCBE3DFE1CE010197F1F729
:101CA00082E080930A0A40E066E083E09AE095DFF4
:101CB00040E062E083E09AE090DF2197F1F7DF9166
:101CC000CF910895CF93DF9300D000D01F921F9241
:101CD000CDB7DEB728E0E7E4F2E0DE01119601902F
:101CE0000D922A95E1F7FC012085241708F44FEFA7
:101CF00050E0440F551F21E030E02C0F3D1F420FF4
:101D0000531FFA012081620F606840E028960FB6E9
:101D1000F894DEBF0FBECDBFDF91CF915ECF41E023
:101D20005CDF81E090E00895AF92BF92CF92DF92A6
:101D3000EF92FF920F931F93CF93DF9300D01F92E8
:101D4000CDB7DEB78C016B017A0180911107833327
:101D5000E9F45B016801C40ED51EC016D106A9F1D5
:101D60000E94CB028FE00E94D702812F0E94D702EF
:101D7000802F0E94D7020F5F1F4F80E00E94D70282
:101D8000F50181935F010E94C102E7CF843369F5B9
:101D90000E94CB0219830A838F2D8F778B83EC826D
:101DA00064E070E0CE0101960E94A702A70170E0F6
:101DB00060E0C6010E942641E114F10421F0B70160
:101DC000C6010E94A7020E94C102C7010F900F9096
:101DD0000F900F90DF91CF911F910F91FF90EF9097
:101DE000DF90CF90BF90AF9008950E94CB020F3F3D
:101DF000110509F030F419820A831B8263E070E058
:101E0000D1CF17FD0BC019820A8333E016950795D1
:101E10003A95E1F7007E08600B83F0CFC80126E019
:101E2000969587952A95E1F7807E19830A83011597
:101E3000104C18F480618B83E1CF8861FCCFCF9385
:101E4000DF931F92CDB7DEB72091120730E0322F1B
:101E50002227260F371F90E0982F882741E050E077
:101E6000BE016F5F7F4F820F931F5EDF89810F90EE
:101E7000DF91CF91089563E070E0E1CFCF93C82F59
:101E800080E591E00E946F018C2FCF91F4CFEF920B
:101E9000FF920F931F93CF93DF937C0180911107E3
:101EA000D4E0833309F0D8E00DEF16E0C0E0F8018C
:101EB000219131918F01F70184819581281739078C
:101EC00029F0CF5FDC13F3CF80E005C08C2FD6DF85
:101ED0008431B9F781E0DF91CF911F910F91FF908D
:101EE000EF900895CF93DF93EC018C858830C8F490
:101EF000C5DF843189F0882379F0883169F021E0E9
:101F00008C3159F4E881F9810084F185E02DCE010E
:101F1000199521E0892B09F420E0822FDF91CF91E0
:101F2000089580E0FBCFCF93C82F462F61E070E08B
:101F30000E94EC0361E070E08C2F81DF8111FACF09
:101F4000CF910895CF93C82F80E591E00E946F0153
:101F500068E070E08C2FCF91E6CFCF93C82F80E55B
:101F600091E00E946F0160E170E08C2FCF91DBCF98
:101F7000CF93DF93EC01888D883018F4EEDF88E092
:101F8000888FDF91CF910895CF92DF92EF92FF92E9
:101F9000CF93DF93EC018C85883050F4D3DF75D874
:101FA0006B017C018C856ADF811109C088E08C8718
:101FB000DF91CF91FF90EF90DF90CF90089561E097
:101FC00070E080E090E030D860D8AB01BC014C19E3
:101FD0005D096E097F098D859E85B0E0A0E04817F8
:101FE00059076A077B07F0F28C85B7DFDFCFCF9305
:101FF000FC01C08D80E591E00E946F0160E270E01D
:102000008C2F91DF62E070E08C2F19DF84FD15C00A
:1020100062E070E08C2F13DF83FF0AC048E162E0CA
:1020200070E08C2F0E94EC0380E090E0CF91089547
:1020300080E591E00E946F01E5CF40E162E070E051
:102040008C2F0E94EC0381E0F0CF1F93CF93DF939E
:102050001F92CDB7DEB7182F80E591E00E946F0187
:10206000812F0E94120227E0129FF0011124EB53EE
:10207000F94F22813381377041E050E0BE016F5F3C
:102080007F4F820F931F50DE89810F90DF91CF9198
:102090001F910895FC01808D883038F4218D328D98
:1020A000232B19F0D2DF90E008958FEF9FEF089572
:1020B000CF93DF93FC012485283028F08FEF9FEF2A
:1020C000DF91CF910895EC010190F081E02D008423
:1020D000F185E02D1995892B89F38C85B6DF90E089
:1020E000EFCFDA01E0911207F0E0FE2FEE27E60FC6
:1020F000F71F90E0982F8827A901BD018E0F9F1F21
:1021000013CE8F929F92AF92BF92CF92DF92EF92B7
:10211000FF920F931F93CF93DF93CDB7DEB76097F6
:102120000FB6F894DEBF0FBECDBF7C0190911107B2
:10213000911115C018E0812F60960FB6F894DEBF9C
:102140000FBECDBFDF91CF911F910F91FF90EF9008
:10215000DF90CF90BF90AF909F908F90089508E050
:10216000933309F404E06B0180E591E00E946F0174
:102170009E012F5F3F4F5901490110E0812F7BDE07
:10218000F40181934F018823B9F01F5F0113F6CF4B
:1021900000E0F50181915F018D3149F0883139F01E
:1021A0008A51823020F00F5F1013F3CFC3CF60E16C
:1021B00070E0802FB8DE102FA12EB12CF501EE0FAC
:1021C000FF1FE350F94F1182108283EE93E00197D5
:1021D000F1F742E870E060E0812F0E94EC034FEFDE
:1021E00062E070E0812F0E94EC03B601C114D104BB
:1021F00091F480911E0290911F0201968115F0ECDE
:102200009F0708F45AC090931F0280931E026091AA
:102210001E0270911F02812F0E94A30386E0EFE44B
:10222000F2E0DE01199601900D928A95E1F7F7012F
:1022300083818F778C8784818D8785818E87A701A5
:102240004E5F5F4F24E030E06CE070E0812F0E9431
:102250007E03B601812F0E948E0326E030E0AE019E
:10226000475F5F4F66E070E0812F0E947E0361E070
:1022700070E0812F58DE27E02A9DC0012B9D900D34
:1022800011249C012B53394F7901F90111821082DD
:1022900022E030E0AE01415F5F4F68E270E0812FE5
:1022A00020DF8F859889982789279827F7019383BE
:1022B00082831682158214823ECF80E090ECA3CFF9
:1022C000CF92DF92EF92FF920F931F93CF93DF9302
:1022D00000D000D0CDB7DEB78C016B017A01FC01D4
:1022E000808D883008F439DE8BE193E09A8389830E
:1022F000F60182819381A481B5818B839C83AD8318
:10230000BE83B701CE010196FCDEF801808F8830D4
:10231000A0F4F586E486128E118E81E026960FB623
:10232000F894DEBF0FBECDBFDF91CF911F910F910B
:10233000FF90EF90DF90CF90089580E0EFCF7F92F5
:102340008F929F92AF92BF92CF92DF92EF92FF92C5
:102350000F931F93CF93DF931F921F92CDB7DEB7DA
:10236000782E8B014A01590122E030E0AE014F5F27
:102370005F4F64E270E0B5DEE980FA80FE24EF246E
:10238000FE24E00EF11E9701377040911107072DD2
:1023900010E0433309F042C0085F1F4F102F0027A1
:1023A000110F110F110FC901800F911F4733C9F190
:1023B000A9014A0D5B1D4130584098F160E078E07A
:1023C0006B01C21AD30AA601B4010E94DE02A50164
:1023D0004C195D09B4016C0D7D1DC8010E94DE021F
:1023E000EA0CFB1CF982EA8222E030E0AE014F5F8A
:1023F0005F4F64E270E0872D0E947E030F900F9084
:10240000DF91CF911F910F91FF90EF90DF90CF90D0
:10241000BF90AF909F908F907F900895005F1F4F67
:10242000BDCFA501B401DACFEF92FF921F93CF93F6
:10243000DF931F921F92CDB7DEB7182F22E030E056
:10244000AE014F5F5F4F60E270E04BDEE980FA80E3
:10245000FE24EF24FE2422E030E0AE014F5F5F4F08
:1024600060E270E0812F3DDE89819A81982789277B
:102470009827E816F90689F487E0189FF0011124DF
:10248000EB53F94FF582E482C7010F900F90DF9173
:10249000CF911F91FF90EF9008957C01DCCF1F93A7
:1024A000CF93DF93182F80E591E00E946F01812F79
:1024B000BBDFEC01812FDFDC873121F08C3111F0A3
:1024C000D0E0C0E0CE01DF91CF911F910895CF936E
:1024D000DF93EC018C85883050F4D0DC873111F02B
:1024E0008C3129F48C85DBDF8115984098F3DF91DE
:1024F000CF910895FC018485883008F4D0CF90E016
:1025000080E00895CF92DF92EF92FF921F93CF93D6
:10251000DF93182F7B01EA014130584010F0C0E0F2
:10252000D8E080E591E00E946F01812F7DDF6C0192
:10253000812FA1DC873111F08C3101F5CC16DD063D
:1025400080F380E591E00E946F019E01A70170E099
:1025500060E0812FF4DE60E270E0812FE4DC62E075
:1025600070E0812F6CDC84FD0CC0812F84DC88231B
:10257000B9F080E591E00E946F01F1CFD0E0C0E0BA
:10258000E0CF40E162E070E0812F0E94EC03CE01D9
:10259000DF91CF911F91FF90EF90DF90CF90089542
:1025A000D0E0C0E0F4CF0F931F93CF93DF938C0163
:1025B000EA01FC018485883040F4A4DF892B39F4DA
:1025C00081E090E0F80193838283D0E0C0E0CE0107
:1025D000DF91CF911F910F9108959F92AF92BF927B
:1025E000CF92DF92EF92FF920F931F93CF93DF93DF
:1025F0008C015B01942EE52EFC01C688D788F08CF7
:1026000080E591E00E946F018F2D0EDFC92DDE2D38
:102610008C179D0708F4EC019E01A501B6018F2DD2
:102620008EDEF801868997898C0F9D1F978B868B8C
:10263000CE01DF91CF911F910F91FF90EF90DF902E
:10264000CF90BF90AF909F900895FF920F931F93EC
:10265000CF93DF931F921F92CDB7DEB7F82E22E003
:1026600030E0AE014F5F5F4F66E270E03ADD098116
:102670001A8110270127102722E030E0AE014F5FBA
:102680005F4F66E270E08F2D2CDD89819A8198275B
:10269000892798270817190749F4C8010F900F9048
:1026A000DF91CF911F910F91FF9008958C01E4CF9E
:1026B0001F93CF93DF93182F87E0189FE001112419
:1026C000CB53D94F88819981009759F480E591E0E7
:1026D0000E946F01812FB9DF2E81821B910999839E
:1026E0008883DF91CF911F9108959F92AF92BF92FF
:1026F000CF92DF92EF92FF920F931F93CF93DF93CE
:10270000EC017B0180911107811121C01B821A828B
:1027100088EE93E0A0E0B0E08C839D83AE83BF831E
:1027200087E892E09983888388E08C8788EE93E03D
:102730009E878D87CE01DF91CF911F910F91FF90E2
:10274000EF90DF90CF90BF90AF909F90089534E0CE
:10275000932E833311F028E0922E8DEFC82E86E061
:10276000D82E10E098E0B92EA12CD6012D913D91E4
:102770006D01F701848195812817390779F4812F3C
:102780007DDB082F873111F08C3129F5812F90DF07
:10279000892B51F50C3111F4812FD4DB1F5F91127D
:1027A000E4CFA11008C0D701ED91FC910084F18520
:1027B000E02DC70119951B821A8288EE93E0A0E0F4
:1027C000B0E08C839D83AE83BF8387E892E09983DA
:1027D0008883BC86ABCF843149F08111DFCFF6010D
:1027E000329711821082DACFB12ED8CFAA24A394C7
:1027F000D5CF8F929F92AF92BF92CF92DF92EF92FE
:10280000FF920F931F93CF93DF93CDB7DEB72F9730
:102810000FB6F894DEBF0FBECDBF5C014B017A014D
:10282000809111078823B1F104E0833309F008E0B7
:10283000B501CE01019659DF8DEFC82E86E0D82E66
:1028400010E0F601219131916F01F50184819581AC
:102850002817390741F4812F11DB873121F4A701B3
:10286000B401812F4FDE1F5F0113EBCFC7012F96FD
:102870000FB6F894DEBF0FBECDBFDF91CF911F9191
:102880000F91FF90EF90DF90CF90BF90AF909F900F
:102890008F900895F12CE12CE9CFFC0184858830DC
:1028A00008F406CF90E080E008954F925F927F9207
:1028B0008F929F92AF92BF92CF92DF92EF92FF9250
:1028C0000F931F93CF93DF931F921F92CDB7DEB765
:1028D000782E6B014A01A82EB12C27E0829FC001FF
:1028E0001124FC01EB53F94F7F010081118180E538
:1028F00091E00E946F01081519054CF4872DA5DEA3
:10290000F70126818C01021B110911830083011537
:10291000110511F5872DAFDA843159F0882349F07C
:1029200001E010E08C3111F410E000E01195019508
:102930001109C8010F900F90DF91CF911F910F9156
:10294000FF90EF90DF90CF90BF90AF909F908F90CF
:102950007F905F904F900895801691060CF484014B
:1029600087E08A9DF0018B9DF00D1124EB53F94F08
:10297000E280F380C114D10441F12701F7E05F2226
:10298000872D0E941202840D951D20911107273377
:1029900009F450C09801240D351D2130384008F449
:1029A00049C020E038E0490184189508A401B60127
:1029B000BBD92601480C591C6801C818D908872DB5
:1029C0000E941202A601B201AFD9E00EF11E87E00B
:1029D0008A9DF0018B9DF00D1124EB53F94FF3828A
:1029E000E28220813181201B310B3183208386815B
:1029F000800F912F911D8A3F910510F4232BE9F44C
:102A000087E08A9DF0018B9DF00D1124EB53F94F67
:102A10001682F982EA8222E030E0AE014F5F5F4F1A
:102A200068E270E0872D0E947E0360E470E0872DED
:102A30007ADA7FCFA801B601C7CF86837ACFCF934A
:102A4000DF93FC01218D328D2115310529F48FEFA3
:102A50009FEFDF91CF910895EC01808D42175307CE
:102A600008F0A90122DF181619068CF7298D3A8D76
:102A7000281B390B3A8F298FECCF0F931F93CF93DD
:102A8000DF931F92CDB7DEB7FC01218D328D232B52
:102A900041F48FEF9FEF0F90DF91CF911F910F9136
:102AA00008958C0141E050E0BE016F5F7F4FFC0153
:102AB000808DFBDE1816190664F7F801818D928D62
:102AC0000197928F818F898190E0E5CFCF93DF933B
:102AD0001F92CDB7DEB741E050E0BE016F5F7F4F80
:102AE000FC018485E2DE1816190634F4898190E031
:102AF0000F90DF91CF9108958FEF9FEFF9CFFC01F9
:102B00008485883008F4D1CE90E080E008958F92DB
:102B10009F92AF92BF92CF92DF92EF92FF920F936C
:102B20001F93CF93DF9300D000D000D01F92CDB77A
:102B3000DEB790911107911115C018E0812F2A96E8
:102B40000FB6F894DEBF0FBECDBFDF91CF911F91BE
:102B50000F91FF90EF90DF90CF90BF90AF909F903C
:102B60008F90089528E0F22E933311F494E0F92E1B
:102B70006B01082F80E591E00E946F019E012F5F9D
:102B80003F4F5901490110E0812F75D9F40181931C
:102B90004F018823B9F01F5FF112F6CFF12CF50138
:102BA00091915F019D3149F0983139F09A519230FD
:102BB00020F0F3941F11F3CFC0CF60E170E08F2DB0
:102BC000B2D91F2DE12EF12CF701EE0FFF1FE350BC
:102BD000F94F1182108283EE93E00197F1F7402FB5
:102BE00070E060E0812F0E94EC034FEF62E070E044
:102BF000812F0E94EC03B601CD2889F480911E023A
:102C000090911F0201968115F0EC9F0788F1909337
:102C10001F0280931E0260911E0270911F02812F7D
:102C20000E94A30361E070E0812F7DD927E02E9DF3
:102C3000C0012F9D900D11249C012B53394F790118
:102C4000F9011182108222E030E0AE01475F5F4F50
:102C500068E270E0812F45DA89859A85982789276F
:102C60009827F7019383828316821582148266CF98
:102C700080E090ECCCCF0F931F93CF93DF93EC01C8
:102C80008B01888D883008F468D9B80182E03FDF75
:102C9000888F883050F41D870C871A8E198E81E03A
:102CA000DF91CF911F910F91089580E0F9CF0F939D
:102CB0001F93CF938C01FC016481758181E227DF32
:102CC000C82F8830E0F480E591E00E946F018C2FDE
:102CD000D2D8833129F08C2FCF911F910F9132C917
:102CE00062E070E08C2F1FD9F80184819581EC2F70
:102CF000F0E0EE0FFF1FE350F94F91838083CF91F7
:102D00001F910F910895CF92DF92EF92FF921F9340
:102D1000CF93DF93EC017B016A018C85883038F416
:102D2000ADD8882311F08C850DD988E08C87F70108
:102D300082819381A481B5810097A105B10551F4E9
:102D400090E080E0DF91CF911F91FF90EF90DF90B6
:102D5000CF9008958F3F9F4FAF4FBF4F89F370E0E3
:102D600060E081E2D4DE182F8C87883048F780E558
:102D700091E00E946F01A7014E5F5F4F24E030E0B9
:102D80006CE070E0812F0E947E03B601812F0E94CB
:102D90008E0364E070E0812FC6D80E9445086B0165
:102DA0007C018C856BD8873109F18C31F9F088234F
:102DB00039F20E944508AB01BC014C195D096E094E
:102DC0007F098D859E85B0E0A0E084179507A60752
:102DD000B70738F061E070E080E090E00E941408EE
:102DE000E0CF8C85BAD888E08C87AACF81E090E0CC
:102DF000A9CF0F931F93CF93DF931F921F92CDB74D
:102E0000DEB7FC0124852830D8F48C0180E591E000
:102E10000E946F0122E030E0AE014F5F5F4F60E142
:102E200070E0F80184855DD989819A819827892786
:102E300098270F900F90DF91CF911F910F910895D8
:102E400090E080E0F6CF0F931F93CF93DF931F9214
:102E50001F92CDB7DEB7FC0124852830D8F48C0151
:102E600080E591E00E946F0122E030E0AE014F5F0B
:102E70005F4F64E070E0F801848533D989819A81DD
:102E80009827892798270F900F90DF91CF911F9156
:102E90000F91089590E080E0F6CFCF93DF931F92DB
:102EA000CDB7DEB741E050E0BE016F5F7F4F90E0ED
:102EB00080E00E94940E89810F90DF91CF91089558
:102EC000CF93DF93C4E1D0E0E8DF882361F061E0D5
:102ED00070E080E090E00E9414082197A9F780E05C
:102EE000DF91CF91089581E0FBCFCF92DF92EF92F7
:102EF000FF920F931F93CF93DF93CDB7DEB7C454E8
:102F0000D1090FB6F894DEBF0FBECDBFFC018281A0
:102F10009381A481B58123968CAF9DAFAEAFBFAF37
:102F2000239721E023962FAF239723964CAD5DADD9
:102F30006EAD7FAD23974BAB5CAB6DAB7EAB89AF1A
:102F40009AAFABAFBCAF8DA79EA7AFA7B8AB28AB6E
:102F50004DA55EA56FA578A94FA358A769A77AA725
:102F60002EAB4BA95CA96DA97EA949A35AA36BA35B
:102F70007CA38B8F9C8FAD8FBE8F4BE153E05C8B1E
:102F80004B8B3FEF3D8B3E8B3F8B188E5E874D8783
:102F90002AA7CFA0D8A4E9A4FAA4CF86D88AE98A20
:102FA000FA8A2CA309A11AA12BA13CA109871A878F
:102FB0002B873C875A8349838B839C83AD83BE8355
:102FC00080911307811199C060E372E080E090E086
:102FD0000E9414081FB7F89480911007811127C030
:102FE000EEECF1E08491E4E1F2E09491E82FF0E07E
:102FF000EE0FFF1FEB59FE4FA591B491EC91E92321
:1030000021F461E085E30E943A0761E085E30E94D4
:1030100067078CB580618CBD8CB580648CBD61E028
:1030200084E30E94670761E083E30E946707809161
:1030300010078F5F809310071FBFE3EAF1E0E49170
:10304000F0E0EE0FFF1FE55BFE4F859194919093AA
:103050000F0780930E07E9EEF1E0E491E0930D078E
:1030600061E08AE00E9467070E94C10280E591E06A
:103070000E946F0184E38093110780E80E94080496
:103080001FDF882309F46FC088E00E94080405DF71
:10309000883009F068C080E10E940804FEDE8031BB
:1030A00009F061C080E00E940804F7DE182F81114A
:1030B0005AC041E050E0BE016D5B7F4F8FE190E070
:1030C0000E94940E24968FAD2497833009F04BC054
:1030D00080E48093120742E06EE170E0812F0E944D
:1030E000EC0342E06FE170E0812F0E94EC031F5F70
:1030F000183089F781E08093130780E591E00E9402
:103100006F0146E050E069E272E089E090E00E94E1
:10311000DE0244E050E0BE016D5F7F4F8FE090E043
:103120000E94DE0244E050E0BE01615F7F4F81E01B
:1031300090E00E94DE0244E050E0BE016B5E7F4FF3
:1031400085E090E00E94DE0281E08C8789859A8587
:10315000AB85BC858093550790935607A09357077E
:10316000B093580767C087E38093110780E80E94F7
:103170000804A6DE882321F188E00E9408048DDE81
:103180008830F1F480E10E94080487DE182F803136
:10319000B9F480E00E94080480DE811111C041E092
:1031A00050E0BE016D5B7F4F89E390E00E94940E7A
:1031B00024968FAD2497843019F4109312079ACF78
:1031C00083E38093110780E80E94080479DE882356
:1031D00079F180E10E94080460DE803149F582E1E6
:1031E0000E9408045ADE823119F580E00E9408042A
:1031F00054DE81111DC084E08093120715E52596E9
:103200001FAF259741E050E0BE016C5B7F4F8BE123
:1032100090E00E94DE0224961FAF249741E050E028
:10322000BE016D5B7F4F8AE190E00E94DE0262CFBB
:1032300010921107CC5BDF4F0FB6F894DEBF0FBEC4
:10324000CDBFDF91CF911F910F91FF90EF90DF9055
:10325000CF9008950C94AB3F0C94AB3F0C94AB3FD4
:103260000C94AB3F0C94AB3FFC01808191810097A3
:1032700011F00C94AB3F08950F931F93CF93DF93FE
:1032800000D000D01F921F92CDB7DEB78C01D801BD
:1032900059964D915C915A974115510551F0ED9118
:1032A000FC91048CF58DE02D70E060E0C80119956B
:1032B000EECFF801808DFCD9892BA9F148E050E0D0
:1032C000BE016F5F7F4FD80158968C91EEDA1816C9
:1032D0001906F4F4D801509684E0FE01319601906D
:1032E0000D928A95E1F78D8190E0982F88272E81A5
:1032F000820F911DF801958B848B8F81282F30E0F0
:10330000322F22278885820F932F911D928F818FD4
:1033100028960FB6F894DEBF0FBECDBFDF91CF91D8
:103320001F910F91089590E080E0F2CF4F925F924D
:103330006F927F928F929F92AF92BF92CF92DF92C5
:10334000EF92FF920F931F93CF93DF93CDB7DEB72A
:1033500063970FB6F894DEBF0FBECDBF7C016B0143
:103360003A01FB0120E090E080E06AE031913323F4
:1033700009F460C040ED430F4A3008F04CC0689F2C
:10338000A001699F500D1124CA01C097830F911DA0
:1033900037FD9A958F3F910549F340F3F70142813C
:1033A0005381648175818091610790916207A0913A
:1033B0006307B0916407481759076A077B0709F448
:1033C000F3C18701085F1F4F0E9445086F70772780
:1033D0007C5FC80150DC813009F0EBC18BE193E0E8
:1033E0009A838983F70182819381A481B5818B833C
:1033F0009C83AD83BE8345E350E0BE016F5F7F4F8A
:10340000C8010E94B803892BA9F5D12CC12CC80191
:103410000E94B80F17C03E3209F0C0CF233009F424
:10342000BDCFD301A20FB11D12968C932F5F90E0F8
:1034300080E09CCF233009F0B1CFF3018583CC2409
:10344000C394D12CC60163960FB6F894DEBF0FBEAD
:10345000CDBFDF91CF911F910F91FF90EF90DF9043
:10346000CF90BF90AF909F908F907F906F905F9024
:103470004F9008950E944508F7017783668342E0E4
:1034800050E0B7016A5F7F4FC801A7D881E090E0A4
:103490009A83898342E050E0BE016F5F7F4FC8018D
:1034A0009CD880E091E09A83898342E050E0BE019D
:1034B0006F5F7F4FC80191D81A82198242E050E0B5
:1034C000BE016F5F7F4FC80188D842E050E0BE0167
:1034D0006F5F7F4FC80181D842E050E0BE016F5F4F
:1034E0007F4FC8017AD85601F60180818823F1F018
:1034F0006501F60181912F01882311F08E32A1F42C
:1035000046018A189B081814190464F48D8641E05A
:1035100050E0BE01635F7F4FC8015FD8A401B501D1
:10352000C8015BD85201E0CF6201E3CF1D8641E0C4
:1035300050E0BE01635F7F4FC8014FD8C12CDD242E
:10354000D394DA82C98242E050E0BE016F5F7F4FC0
:10355000C80143D8DA82C98242E050E0BE016F5F01
:103560007F4FC8013AD8C8010E94F70F892B09F490
:103570004CCFF3E0AF2EB12C230122E0420E511CC0
:10358000C9C0F7014281538164817581808D918D1D
:10359000A28DB38D481759076A077B0709F0FAC057
:1035A000848D958DC59709F0F5C081A192A15DEF3D
:1035B000C52EDD24DA940C970CF4A2C04CE050E048
:1035C000BE016F5F7F4FC8013ADA8B819C819827DB
:1035D000892798279A8B898BF70146815781298102
:1035E0003A814217530709F0DAC097FFD8C08F70AD
:1035F00092703BEFC32EDD24DA94892B09F080C052
:103600006F8078847624672476242AEFC22EDD2406
:10361000DA946114710409F473C0D12CC12C8D812A
:103620009E81982789279827C816D906E0F441E09B
:1036300050E0BE01635F7F4FC80101DA4D8544232E
:1036400029F050E070E060E0C801F9D98D85811162
:10365000EECF44E050E070E060E0C801F0D9FFEF49
:10366000CF1ADF0ADCCF912C812C41E050E0BE0163
:103670006D5E7F4FC801E3D94B89842F807C09F0B0
:1036800065C0442329F050E070E060E0C801D7D95C
:103690008B898111EACF42E050E0BE01615F7F4F2C
:1036A000C801CDD942E050E0BE01635F7F4FC80141
:1036B000C6D944E050E070E060E0C801C0D942E003
:1036C00050E0BE016F5E7F4FC801B9D98F859889E0
:1036D00049895A898115914009F040C0CD84DE8422
:1036E000DC24CD24DC2481E0C816D104B9F54115D1
:1036F000544009F046C044E050E0B201C8019FD9EF
:1037000021E0A21AB10809F482CEFFEFCF16DF063E
:1037100009F07DCE0E9445083B014C01C801ACDD9B
:10372000181619060CF42DCF0E9445086619770962
:1037300088099909693873418105910538F562E373
:1037400070E080E090E00E941408E8CF41E050E093
:1037500070E060E0C80173D91B8A9ACF54274527CF
:10376000542770E060E0C8016AD9FFEF8F1A9F0A02
:103770006814790409F079CF96EFC92EDD24DA9424
:10378000BFCFE7EFCE2EDD24DA94BACFCC24CA9493
:10379000DC2CB6CF6EEFC62EDD24DA94B1CF4CEF21
:1037A000C42EDD24DA94ACCF8EEFC82EDD24DA945B
:1037B00049CED12CC12C46CECF92DF92EF92FF9210
:1037C0000F931F93CF93DF93CDB7DEB7AF970FB6AD
:1037D000F894DEBF0FBECDBF7C016A010BE113E0A0
:1037E0001A8309831C861B8688EE93E0A0E0B0E074
:1037F0008D879E87AF87B88B81EC92E09A87898707
:10380000188F0F8B198E1A8E1B8E1C8E88E089A341
:103810001BA70AA71CA61DA61EA61FA680915507BA
:1038200090915607A0915707B09158078EA39FA378
:10383000A8A7B9A78B839C83AD83BE8318861F82FC
:10384000AE01465D5F4FCE01019670DD813091057E
:10385000B1F4D701ED91FC910488F589E02D1DA309
:103860000CA38CA59DA5AEA5BFA58EA39FA3A8A7BD
:10387000B9A7A601BE016C5D7F4FC7011995AF9630
:103880000FB6F894DEBF0FBECDBFDF91CF911F9171
:103890000F91FF90EF90DF90CF900895CF92DF923D
:1038A000EF92FF920F931F93CF93DF93CDB7DEB7C5
:1038B000AF970FB6F894DEBF0FBECDBF8C016B0182
:1038C0007A018BE193E09A8389831B821C821D829B
:1038D0001E821C861B8648EE53E060E070E04D8738
:1038E0005E876F87788B21EC32E03A872987988F43
:1038F0008F8B198E1A8E1B8E1C8E28E029A39BA7F6
:103900008AA71CA61DA61EA61FA6D8011C968C91D0
:10391000883060F40E943E0F882321F0F8018485EE
:103920000E94A20F88E0D8011C968C9380915507C5
:1039300090915607A0915707B09158078EA39FA367
:10394000A8A7B9A78B839C83AD83BE8318861F82EB
:10395000AE01465D5F4FB601CE010196E7DC0097F0
:10396000C1F0D801ED91FC910684F785E02D8BE143
:1039700093E09DA38CA38CA59DA5AEA5BFA58EA30A
:103980009FA3A8A7B9A7A701BE016C5D7F4FC8017F
:103990001995AF960FB6F894DEBF0FBECDBFDF917D
:1039A000CF911F910F91FF90EF90DF90CF900895EE
:1039B000DC018BE193E08D939D9384E0FB0101900A
:1039C0000D928A95E1F70895EF92FF920F931F935E
:1039D000CF93DF9300D01F92CDB7DEB78C017B0170
:1039E000FB0184858830A8F08BE193E0F801918396
:1039F00080831282138214821582C8010F900F9067
:103A00000F900F90DF91CF911F910F91FF90EF904A
:103A1000089580E591E00E946F0124E030E0AE015E
:103A20004F5F5F4F6CE070E0F70184850E9471107A
:103A3000BE016F5F7F4FC801BBDFDFCF3F924F9268
:103A40005F926F927F928F929F92AF92BF92CF922E
:103A5000DF92EF92FF920F931F93CF93DF93CDB737
:103A6000DEB7EA970FB6F894DEBF0FBECDBF7C017C
:103A70002A013B0169010E9445084B015C01870155
:103A80000D5B1F4FC801F8DB181619069CF00E9449
:103A90004508681979098A099B0946165706680678
:103AA000790608F464C162E370E080E090E00E946F
:103AB0001408E8CF42E250E0BE016F5F7F4FC801BB
:103AC0000E941F1589818230D1F0312C832DEA9616
:103AD0000FB6F894DEBF0FBECDBFDF91CF911F911F
:103AE0000F91FF90EF90DF90CF90BF90AF909F909D
:103AF0008F907F906F905F904F903F900895F80166
:103B0000848995898334910501F76D817E818F8148
:103B100098850E94F43E4B015C01F60180829182FF
:103B2000A282B38246E050E0B701685F7F4FCE01CA
:103B30004D960E941041892B41F6F70180819181B9
:103B4000A281B38188169906AA06BB0608F4BDCFE8
:103B500084819581A681B78188159905AA05BB0541
:103B600008F4B3CF89899A89AB89BC8986879787FE
:103B7000A08BB18B4EEC50E070E060E0C8010E9479
:103B80001F15312CC701829698AB8FA7F701B69607
:103B9000FAABE9AB08969CAB8BAB67019AE1C90E17
:103BA000D11CBD96FEABEDABC701429698AF8FAB73
:103BB000FD97FAAFE9AF4701FEE18F0E911CF801C6
:103BC000818D928D181619060CF080CFC8010E94C5
:103BD0003D158333910509F4B0C014F5813091058A
:103BE00009F462C044F4892B51F3C8010E943D15C9
:103BF000AC01552773C08330910509F460C0069766
:103C0000A1F7C8010E943D15B82E44E050E0B40170
:103C1000C8010E941F15EB2DE450FF0BAF015EC0E1
:103C20008A33910509F45DC074F585339105A1F1DE
:103C3000C697D9F6C8010E943D155C01B601CE01B8
:103C40008996B6DE8BA59CA5ADA5BEA5892B8A2B32
:103C50008B2BA9F0EDA9FEA9408051806280738072
:103C6000B601CE018396A4DE8DA19EA1AFA1B8A519
:103C7000A501481659066A067B0609F0BACF44E04A
:103C800050E0B60118C08B33910509F440C08F3F56
:103C9000910509F494CFA9CFC8010E943D15C80130
:103CA0000E943D15382E8BCFC8010E943D1544E07F
:103CB00050E06FA978ADC8010E941F1580CFC801E0
:103CC0000E943D15B82E44E050E069AD7AADC801C0
:103CD0000E941F158B2D8450990BAC0170E060E0A1
:103CE000EACFC8010E943D1544E050E069A97AA9D5
:103CF000C8010E941F15F70166A177A180A591A5B3
:103D00000E94F43E66A377A380A791A758CFC8016D
:103D10000E943D1544E050E06BA97CA9C8010E94B7
:103D20001F15F70162A573A584A595A50E94F43E11
:103D300062A773A784A795A742CFC8010E943D152B
:103D400044E050E06FA578A9C8010E941F15F70153
:103D500062A173A184A195A10E94F43E62A373A302
:103D600084A395A366A777A780AB91AB28CF332414
:103D70003A94ACCE7F928F929F92AF92BF92CF92A5
:103D8000DF92EF92FF920F931F93CF93DF93CDB704
:103D9000DEB7A6970FB6F894DEBF0FBECDBF8C017D
:103DA000762E942E852E20E2A22ECE0101967C0145
:103DB000DC01EA2D1D92EA95E9F76801F3E4CF0EE4
:103DC000D11C8BE193E09AA389A38FEF8BA38CA3E3
:103DD0008DA38EA343E450E0BE016F5D7F4FC6010B
:103DE0000E94B803019609F4BFC081E089838A83E9
:103DF00086E0B82EBB821C82D80114966D917D910D
:103E00008D919C9117970E94F43E6D837E838F83E2
:103E1000988789869A8680E890E09C878B874CE11A
:103E200050E0B701C6010E94ED12FE0137968AE10B
:103E3000DF011D928A95E9F74801B8E08B0E911CCD
:103E4000F401D70101900D92BA94E1F740E150E0FE
:103E5000B701C6010E94ED12F7011192AA94E9F789
:103E600096E0A92EB12C40E250E0B701C6010E94B5
:103E7000ED12F1E0AF1AB108B1F783E6898392E859
:103E80009A8393E59B838C8385E38D8381E08E8386
:103E90007F829DE3988797E099878A8786E0F4017F
:103EA000DE011B9601900D928A95E1F78CE0898BDB
:103EB0008A8B69E473E0CE0143960E943641D801B3
:103EC0001B966C91CE0149960E94E901F801648528
:103ED000CE014B960E94E901D8011D966C91CE014E
:103EE0004D960E94E9014EE150E0B701C6010E94E3
:103EF000ED12B3E07B121EC082E3898384E08A83E3
:103F0000F80196859B8397859C8390899D839189F1
:103F10009E8396E39F838887828D8987838D8A8796
:103F2000848D8B87858D8C874CE050E0B701C6016E
:103F30000E94ED1287E3898386E08A8391E09B8368
:103F400093E09C838D838FE08E838AE38F838BE362
:103F500088878FEF898749E050E0B701C6010E944A
:103F6000ED12C6010E94F70FA6960FB6F894DEBFB9
:103F70000FBECDBFDF91CF911F910F91FF90EF90BA
:103F8000DF90CF90BF90AF909F908F907F900895DB
:103F90002F923F924F925F926F927F928F929F9259
:103FA000AF92BF92CF92DF92EF92FF920F931F9347
:103FB000CF93DF9300D000D0CDB7DEB78C010E9445
:103FC000DC3B2FEC37E040E050E00E946F3DDC012D
:103FD000CB010196A11DB11DF80184839583A683B1
:103FE000B78380839183A283B3835801F3E4AF0E38
:103FF000B11CC5010E94B80F64E470E0C5010E94C5
:104000003B16882309F440C10E9445082B013C015E
:10401000480182E4880E911C48EEC42E43E0D42E61
:10402000E12CF12C52E0252E1E821D82D4018C91B0
:104030008330A9F1811165C0F80184819581A68141
:10404000B7810196A11DB11D84839583A683B78393
:104050000E9445086419750986099709A701960108
:104060000E949B3DA90161E0C80184DE81E0D4018A
:104070008C938D819E810197C9F20E944508641935
:10408000750986099709D801D6962D913D914D91D4
:104090005C91D997261737074807590728F6C501B5
:1040A0000E94B80FF80184819581A681B78101969D
:1040B000A11DB11D84839583A683B7830E94450803
:1040C000F801FE9660837183828393838D819E8144
:1040D00026960FB6F894DEBF0FBECDBFDF91CF910D
:1040E0001F910F91FF90EF90DF90CF90BF90AF9016
:1040F0009F908F907F906F905F904F903F902F9008
:1041000008958430E9F4F80184819581A681B7810E
:104110000196A11DB11D84839583A683B7830E9458
:1041200045086419750986099709A70196010E9437
:104130009B3DA90163E0C8011DDED4012C9299CFFB
:10414000813041F5F80142AD53AD64AD75AD9E01CE
:104150002F5F3F4FC80172DC382EF2E08F138EC004
:1041600089819A81AB81BC81F80184839583A68380
:10417000B7830E9445086419750986099709A70144
:1041800096010E949B3DA90163E0C801F3DDD401C3
:104190003C926FCF823009F06CCFF80142AD53AD45
:1041A00064AD75AD9E012F5F3F4FC80147DC382ECF
:1041B000F5E08F135DC0E3E0D401EC93F80182A138
:1041C00093A1A4A1B5A1892B8A2B8B2B41F484E860
:1041D00093E0A0E0B0E082A393A3A4A3B5A3F80169
:1041E00086A197A1A0A5B1A5892B8A2B8B2B61F461
:1041F00082A193A1A4A1B5A1B695A79597958795FE
:1042000086A397A3A0A7B1A7F80182A593A5A4A50B
:10421000B5A5892B8A2B8B2BA9F482A193A1A4A1EC
:10422000B5A1AC01BD0123E07695679557954795FB
:104230002A95D1F7841B950BA60BB70B82A793A7E2
:10424000A4A7B5A7F80186A197A1A0A5B1A586A7A7
:1042500097A7A0ABB1AB82A593A5A4A5B5A582AB4A
:1042600093ABA4ABB5AB81E090E09E838D8301CF8F
:1042700096E0891303C0D4011C92FBCEBFEF3B1222
:10428000F8CEF4011082F5CE1E821D821FCFFC01F4
:1042900024813581FB014481558124173507E1F4E0
:1042A000FC0180819181FB01608171810097D1F0D7
:1042B00061157105A1F4232BC1F0FC01808190E010
:1042C00008C0232B91F0FB01808190E091958195AE
:1042D000910921E0892B09F020E0822F08950E94A6
:1042E0002D41F7CF6115710561F721E0F6CFFB0194
:1042F00001900020E9F73197AF01461B570BDC0115
:10430000ED91FC910280F381E02D19948F929F92A0
:10431000AF92BF92EF92FF920F931F93CF93DF93D1
:10432000CDB7DEB7A1970FB6F894DEBF0FBECDBFF5
:104330007C01FA01CB0119A2223008F42AE08E0197
:104340000F5D1F4F822E912CB12CA12CBF01A50116
:1043500094010E949B3DF901CA016A3004F5605D39
:10436000D8016E938D01232B242B252B79F790E018
:1043700080E0109719F0BD01C701B9DFA1960FB613
:10438000F894DEBF0FBECDBFDF91CF911F910F918B
:10439000FF90EF90BF90AF909F908F900895695CD1
:1043A000DFCFCF92DF92EF92FF920F931F93CF93C5
:1043B000DF936B01770FEE08FF08F7FE1AC0EC01E0
:1043C0006DE20E94B3088C0144275527BA014C19AD
:1043D0005D096E097F092AE0CE0198DF800F911FE9
:1043E000DF91CF911F910F91FF90EF90DF90CF90D1
:1043F00008952AE0B701A601DF91CF911F910F9197
:10440000FF90EF90DF90CF9081CF8F929F92AF92ED
:10441000BF92CF92DF92EF92FF920F931F93CF93B1
:10442000DF937C018B016C0182E0C80ED11C470137
:10443000E5E08E0E911CD0E0C0E0F60141916F01E5
:1044400050E070E060E02AE0C80160DF5C016EE2ED
:10445000C8010E94B3088A0D9B1DC80FD91FC8143C
:10446000D90459F7F701458150E070E060E02AE097
:10447000C8014CDF8C0F9D1FDF91CF911F910F91D1
:10448000FF90EF90DF90CF90BF90AF909F908F9074
:1044900008952F923F924F925F926F927F928F92E8
:1044A0009F92AF92BF92CF92DF92EF92FF921F93B3
:1044B000CF93DF93EC016A017B01722EAB01960171
:1044C000CB01B6010E94C93E60E573E0811126C0B0
:1044D00046015701E894B7F82FEF3FEF4FE75FE74A
:1044E000C501B4010E94C93E81110CC02FEF3FEFFE
:1044F0004FE75FE7C501B4010E94563C64E573E0F5
:10450000181664F02FEF3FEF4FE75FE4C701B601E5
:104510000E94C53E1816ACF468E573E0CE01DF9149
:10452000CF911F91FF90EF90DF90CF90BF90AF9011
:104530009F908F907F906F905F904F903F902F90C3
:10454000D6CE2FEF3FEF4FE75FECC701B6010E94D9
:10455000563C87FDE1CF20E030E0A901C701B6015C
:104560000E94563C312C212C87FF09C06DE2CE0100
:104570000E94B3081C01F7FAF094F7F8F09410E0E9
:1045800060E070E080E09FE3711641F020E030E0F1
:1045900040E251E40E94313E1F5FF6CFA701960131
:1045A0000E94CD3D2B013C010E94993E4B015C01D4
:1045B0002AE0BC01A401CE01A9DE7C01E20CF31CBF
:1045C0001123B9F1C501B4010E945A3C9B01AC0111
:1045D000C301B2010E94CC3D4B015C016EE2CE01F1
:1045E0000E94B308E80EF91E115018F120E030E0E7
:1045F00040E251E4C501B4010E94BB3C2B013C01E7
:104600000E94993E4B01B12CA12C2AE0B501A401D6
:10461000CE017CDEE80EF91EC501B4010E945A3CB1
:104620009B01AC01C301B2010E94CC3D4B015C0176
:10463000DBCFC701DF91CF911F91FF90EF90DF900B
:10464000CF90BF90AF909F908F907F906F905F9032
:104650004F903F902F9008956CE573E048CE0F93F4
:104660001F93CF93DF938C01D0E0C0E061157105FB
:1046700011F03DDEEC01C801EFDF8C0F9D1FDF91D3
:10468000CF911F910F9108953F924F925F926F9239
:104690007F928F929F92AF92BF92CF92DF92EF92D2
:1046A000FF920F931F93CF93DF93CDB7DEB7CC5A12
:1046B000D1090FB6F894DEBF0FBECDBF8C01FC014F
:1046C000828193810E94450DF801248935898217E2
:1046D000930709F4EEC1268937898217930709F4F5
:1046E000E8C1C480D580E680F780A084B18462846C
:1046F0007384CE0187579F4F0E940402F801828184
:1047000093810E940B0CC457DF4F5883CC58D04084
:10471000F801828193810E940B0CEF967FAFEF9797
:10472000C158DF4F8883CF57D040C258DF4F8881B0
:104730009981CE57D040C257DF4F99838883CE5896
:10474000D040F801828193810E940B0CC357DF4F48
:104750006883CD58D040F801828193810E940B0C70
:10476000992EC057DF4F9883C059D040C6010E9490
:10477000313C582EC757DF4F8883C958D040C601F7
:1047800003960E94313C882EC657DF4F8883CA5853
:10479000D040C60106960E94313CC557DF4F888342
:1047A000CB58D040252D382D482FC457DF4F588186
:1047B000CC58D040C357DF4F6881CD58D040C25746
:1047C000DF4F7881CE58D040C157DF4F8881CF5816
:1047D000D040992D0E947201C755DF4F68837983BD
:1047E0008A839B83C95AD040CE018F569F4F0E9427
:1047F0000402F801828193810E940B0CCC56DF4F9A
:104800005883C459D040F801828193810E940B0CD7
:104810006F967FAF6F97A0968FAFA097A0968EAD43
:104820009FADA097CA56DF4F99838883C659D04061
:10483000F801828193810E940B0CCB56DF4F688375
:10484000C559D040F801828193810E940B0CD92E6A
:10485000C856DF4F9883C859D040C7010E94313CE9
:10486000982ECF56DF4F8883C159D040C701039699
:104870000E94313CC82ECE56DF4F8883C259D040AB
:10488000C70106960E94313CCD56DF4F8883C3593D
:10489000D040292D3C2D482FCC56DF4F5881C4598C
:1048A000D040CB56DF4F6881C559D040CA56DF4F44
:1048B0007881C659D040C956DF4F8881C759D0404A
:1048C0009D2D0E9472016B017C01CE0187569F4F86
:1048D0000E940402F801828193810E940B0CC4564D
:1048E000DF4F5883CC59D040F801828193810E94D8
:1048F0000B0C7EAF8FAF8EAD9FADC256DF4F99834D
:104900008883CE59D040F801828193810E940B0C9C
:10491000C356DF4F6883CD59D040F801828193811F
:104920000E940B0C992EC056DF4F9883C05AD0407E
:10493000C5010E94313C882EC756DF4F8883C95974
:10494000D040C50103960E94313C582EC656DF4F19
:104950008883CA59D040C50106960E94313CC5568D
:10496000DF4F8883CB59D040282D352D482FC45692
:10497000DF4F5881CC59D040C356DF4F6881CD59A5
:10498000D040C256DF4F7881CE59D040C156DF4F5C
:104990008881CF59D040992D0E9472014B015C0152
:1049A000CE018F559F4F0E940402F80182819381AE
:1049B0000E940B0CCC55DF4F5883C45AD040F801ED
:1049C000828193810E940B0C7E8F8F8F8E8D9F8DA5
:1049D000CA55DF4F99838883C65AD040F801828137
:1049E00093810E940B0CCB55DF4F6883C55AD04092
:1049F000F801828193810E940B0C592EC855DF4F1C
:104A00009883C85AD040C3010E94313C482ECF55EC
:104A1000DF4F8883C15AD040C30103960E94313CC6
:104A2000382ECE55DF4F8883C25AD040C301069638
:104A30000E94313CCD55DF4F8883C35AD040242D8E
:104A4000332D482FCC55DF4F5881C45AD040CB5519
:104A5000DF4F6881C55AD040CA55DF4F7881C65AAA
:104A6000D040C955DF4F8881C75AD040952D0E944C
:104A700072012B013C01F801828193810E940B0C91
:104A80000E94720146165706680679067CF0861663
:104A90009706A806B9064CF1C616D706E806F90629
:104AA00094F46FE573E084E599E0D9DD81E090E06E
:104AB0001EC0F801C484D584E684F784A088B18838
:104AC0006288738816CEC755DF4F288139814A81A5
:104AD0005B81C95AD040261737074807590734F772
:104AE00069E673E084E599E0BADD90E080E0C455C2
:104AF000DF4F0FB6F894DEBF0FBECDBFDF91CF9171
:104B00001F910F91FF90EF90DF90CF90BF90AF90EB
:104B10009F908F907F906F905F904F903F900895FF
:104B2000B3DD60E0892B31F462E773E084E599E05E
:104B300096DD61E089E00C943A07CF93DF93EC01B6
:104B40006BE773E084E599E08ADD81E090E09B8388
:104B50008A8360E08BE0DF91CF910C943A07611576
:104B6000710509F0C4CB90E080E008950F931F9386
:104B7000CF93DF93182F092FEB0166E873E0CE0186
:104B8000EEDF612F702FCE010CDC67EC73E0CE01FD
:104B9000E6DF812F0E94120763E973E0892B11F48D
:104BA00068E973E0CE01DF91CF911F910F9157CD4E
:104BB0002F923F924F925F926F927F928F929F922D
:104BC000AF92BF92CF92DF92EF92FF920F931F931B
:104BD000CF93DF9300D000D000D01F92CDB7DEB7C7
:104BE0009A8789876CE973E084E599E0B8DF9AE0F9
:104BF000292E312C2CE3822E912CA12CB12CE9856D
:104C0000FA8504811581E5E9F6E020E311922A9501
:104C1000E9F783EE80939506E6E0E0939706FCEED5
:104C2000F093980621E32093A1068EE48093A206D8
:104C30002093A306E4E3E093A4064BE750E061E190
:104C400072E08AE197E00E94DC1B40E350E065E9F6
:104C500076E08AE197E00E94ED128AE197E00E94F7
:104C6000F70F64E670E080E090E00E94140840E3F3
:104C700050E065E976E08AE197E00E941F15C09058
:104C8000BD06D090BE06DC24CD24DC24F12CE12C22
:104C90007601DD24CC248091BF069091C006982730
:104CA00089279827B0E0A0E08C299D29AE29BF294B
:104CB0000097A105B10509F4C0C06C017D01F0E8C1
:104CC000CF1AFEE7DF0AFAEAEF0AF3E8FF0AC701A4
:104CD000B60120E831E541E050E00E949B3D20E133
:104CE0003EE040E050E00E949B3DBA01A901F8017E
:104CF000338322832AE084E599E008DB6AE384E5D4
:104D000099E00E94B308C701B60120E13EE040E00F
:104D100050E00E949B3D2B013C01F8E54F16F2E06C
:104D20005F066104710428F460E384E599E00E9461
:104D3000B308C301B201A50194010E949B3DBA01D1
:104D4000A901F801358324832AE084E599E0DEDABD
:104D50006AE384E599E00E94B308C701B601A501A2
:104D600094010E949B3D6B017C01FAE0CF16D104B7
:104D7000E104F10428F460E384E599E00E94B308BB
:104D8000F801D782C6822AE0B701A60184E599E03E
:104D9000BDDA84E599E060DC01E068EB7BE080E06F
:104DA00090E00E9414088AE197E00E943C190023D9
:104DB00009F4A9C0E985FA85E480F580F701A280AD
:104DC000B380148185809680C92CD780E985FA85C7
:104DD000808191810E940B0C29833A834B835C83F1
:104DE0006D837E838F8398878CEF860F863010F1DA
:104DF0002E813F81F70190E080E04685578524179A
:104E00003507E9F421E06A3009F420E039814C816A
:104E100056E0589FB001599F700D1124E60EF71E01
:104E2000F701828993894817190691F4222371F0BA
:104E3000333070F062E070E00DC000E0AECF01965C
:104E4000369685309105C9F6202FE0CF333090F3A8
:104E500061E070E0A60EB71E292D412F6A2DE9856D
:104E6000FA85808191810E94CF0B6EEA73E084E520
:104E700099E075DEB50184E599E093DA6CEC73E0B6
:104E800084E599E06CDE612F782D84E599E089DA7C
:104E90006CEC73E084E599E062DE0D2C000CEE080A
:104EA000FF082AE0B701A601F7FE0DC06DE284E518
:104EB00099E00E94B30844275527BA014C195D09AF
:104EC0006E097F092AE084E599E020DA84E599E01B
:104ED000C3DB802F2A960FB6F894DEBF0FBECDBF7E
:104EE000DF91CF911F910F91FF90EF90DF90CF90C6
:104EF000BF90AF909F908F907F906F905F904F90FA
:104F00003F902F90089564EF71E080E090E00E9460
:104F10001408F1E02F1A310809F071CEDACFAF9200
:104F2000BF92CF92DF92EF92FF920F931F93CF9396
:104F3000DF93CDB7DEB765970FB6F894DEBF0FBE2F
:104F4000CDBF8C015B016A0179011C821B8288EE56
:104F500093E0A0E0B0E08D839E83AF83B88787E8BD
:104F600092E09A83898388E08D8788EE93E09F871B
:104F70008E878BE193E0998B888B80EC8A8B88EA13
:104F80008B8B1C8A82E08D8B40E550E0BE01605F18
:104F90007F4FCE0101960E948316CE0101960E949A
:104FA000720F882309F468C0F801868197810E94F6
:104FB00051086EEC73E0CE010196D1DD6FED73E028
:104FC000CE010196CCDDF801868197810E94D50A39
:104FD000AB01BC0122E0CE0101965BDA6CEE73E01E
:104FE000CE010196BCDD64EF73E0CE010196B7DD22
:104FF000B501CE0101960E94BA0864EF73E0CE01BC
:105000000196ADDD66EF73E0CE010196A8DD64EF99
:1050100073E0CE010196A3DDB601CE0101960E9498
:10502000BA0864EF73E0CE01019699DD6DEF73E08D
:10503000CE01019694DD64EF73E0CE0101968FDD21
:10504000B701CE0101960E94BA0864EF73E0CE0169
:10505000019685DD67E074E0CE01019600DB61E139
:1050600074E0CE010196FBDA64E274E0CE010196B1
:10507000F6DACE010196F0DA65960FB6F894DEBF47
:105080000FBECDBFDF91CF911F910F91FF90EF9099
:10509000DF90CF90BF90AF900895CF92DF92EF92C4
:1050A000FF92CF93DF93EC018C819D810E94510888
:1050B0008C819D810E94D50A6B017C0120E030E04B
:1050C00040E251E40E94C53E181694F520E030E01D
:1050D00040E252E4C701B6010E94563C87FF28C057
:1050E00040E060E08E819F810E94620E6A857B8530
:1050F0008E819F8134DD40E068E08E819F810E9437
:10510000620E22E0B701A6018E819F81C2D940E0E4
:105110006EE08E819F810E94620E66E374E08E8154
:105120009F81DF91CF91FF90EF90DF90CF9017CDCF
:10513000DF91CF91FF90EF90DF90CF9008950F9384
:105140001F93CF93DF93EC0188819981009759F0E9
:105150002A813B812617370730F081E0DF91CF911C
:105160001F910F9108958B016F5F7F4F0E94344014
:10517000009759F0998388831B830A832C813D8192
:10518000232B59F7FC011082E8CF80E0E7CFEF92A4
:10519000FF920F931F93CF93DF93EC017B018A0162
:1051A000BA01CDDF28813981811114C02115310563
:1051B00019F0C9010E94AB3F198218821D821C821E
:1051C0001B821A82CE01DF91CF911F910F91FF9028
:1051D000EF9008951D830C83B701C9010E943641E9
:1051E000F1CFFB0101900020E9F73197AF01461B99
:1051F000570BCDCFFC0111821082138212821582CF
:105200001482FB0101900020E9F73197AF01461BA2
:10521000570BBDCFCF93DF93EC01CB0135DA6FE6AF
:1052200073E0892B11F06AE375E0CE01E3DFCE0174
:10523000DF91CF9108951F920F920FB60F92112414
:105240000BB60F922F933F934F935F936F937F9380
:105250008F939F93AF93BF93EF93FF938091B90088
:10526000887F803609F44DC008F040C0883209F4C8
:10527000A9C028F5803109F49DC0C8F4882309F439
:10528000FBC0883009F496C0FF91EF91BF91AF91B8
:105290009F918F917F916F915F914F913F912F914E
:1052A0000F900BBE0F900FBE0F901F901895883176
:1052B00009F488C0803241F780936E0614C08034B0
:1052C00009F49DC040F48033B9F38833E9F6809344
:1052D0006E0685ECB0C0803509F485C0883509F4C8
:1052E00096C0883489F60E94BD05CECF883909F46E
:1052F0008CC038F5883729F050F4883611F08037A3
:1053000019F683E0809370061092270657C08838FC
:1053100009F47BC0803919F0803809F0B5CF80914D
:105320002706803208F071C0E091270681E08E0FD9
:10533000809327068091BB00F0E0E95FF94F8083FE
:105340003DC0803B39F0E0F4803A09F479C0883AF6
:1053500009F09ACF84E080937006109204061092B0
:105360000306E0910106F09102061995809103066B
:1053700081110FC081E0809303061092E10509C0FE
:10538000803C09F4A6CF883C09F4A3CF883B09F000
:105390007BCFE091040681E08E0F80930406F0E05D
:1053A000EF51FA4F80818093BB0090910406809169
:1053B000030629C080914B068093BB0085EC809347
:1053C000BC0062CF90916D0680916C06981758F5DD
:1053D000E0916D0681E08E0F80936D06F0E0E45B56
:1053E000F94F8081E9CFE0916D0681E08E0F8093C7
:1053F0006D068091BB00F0E0E45BF94F80839091F3
:105400006D0680916C069817C8F285E8D8CFE091B8
:105410006D0681E08E0F80936D068091BB00F0E0F9
:10542000E45BF94F808380916F0681115CCF81E04E
:1054300080934A0684EA8093BC001092700624CFC1
:1054400085EC8093BC001092700680912706803214
:1054500030F4E0912706F0E0E95FF94F10826091A7
:10546000270670E0E0910506F091060687E096E0D9
:1054700019951092270608CF10926E0634CF1F920E
:105480000F920FB60F9211242F933F938F939F93F8
:10549000AF93BF938091D9059091DA05A091DB0578
:1054A000B091DC053091D80523E0230F2D3758F556
:1054B0000196A11DB11D2093D8058093D905909325
:1054C000DA05A093DB05B093DC058091DD059091B2
:1054D000DE05A091DF05B091E0050196A11DB11D8B
:1054E0008093DD059093DE05A093DF05B093E00582
:1054F000BF91AF919F918F913F912F910F900FBED0
:105500000F901F90189526E8230F0296A11DB11D3C
:10551000D2CF1F920F920FB60F9211240BB60F929B
:105520002F933F934F935F936F937F938F939F93AB
:10553000AF93BF93EF93FF93E0910F02F0911002AE
:105540001995FF91EF91BF91AF919F918F917F91AD
:105550006F915F914F913F912F910F900BBE0F90E4
:105560000FBE0F901F9018951F920F920FB60F92BB
:1055700011240BB60F922F933F934F935F936F932A
:105580007F938F939F93AF93BF93EF93FF93E0919C
:105590000D02F0910E021995FF91EF91BF91AF911D
:1055A0009F918F917F916F915F914F913F912F913B
:1055B0000F900BBE0F900FBE0F901F9018951F926B
:1055C0000F920FB60F9211240BB60F922F933F93A9
:1055D0004F935F936F937F938F939F93AF93BF93FB
:1055E000EF93FF93E0910302F09104021995FF916C
:1055F000EF91BF91AF919F918F917F916F915F914B
:105600004F913F912F910F900BBE0F900FBE0F90B7
:105610001F9018951F920F920FB60F9211240BB680
:105620000F922F933F934F935F936F937F938F933B
:105630009F93AF93BF93EF93FF93E0910102F0919B
:1056400002021995FF91EF91BF91AF919F918F91B8
:105650007F916F915F914F913F912F910F900BBE72
:105660000F900FBE0F901F9018951F920F920FB6BC
:105670000F9211240BB60F922F933F934F935F938A
:105680006F937F938F939F93AF93BF93EF93FF930A
:10569000E0910B02F0910C021995FF91EF91BF91EF
:1056A000AF919F918F917F916F915F914F913F91BA
:1056B0002F910F900BBE0F900FBE0F901F9018955B
:1056C0001F920F920FB60F9211240BB60F922F93C9
:1056D0003F934F935F936F937F938F939F93AF937A
:1056E000BF93EF93FF93E0910902F0910A0219959D
:1056F000FF91EF91BF91AF919F918F917F916F91AA
:105700005F914F913F912F910F900BBE0F900FBE65
:105710000F901F9018951F920F920FB60F921124A1
:105720000BB60F922F933F934F935F936F937F939B
:105730008F939F93AF93BF93EF93FF93E0910702F3
:10574000F09108021995FF91EF91BF91AF919F9150
:105750008F917F916F915F914F913F912F910F901A
:105760000BBE0F900FBE0F901F9018951F920F92B7
:105770000FB60F9211240BB60F922F933F934F93B6
:105780005F936F937F938F939F93AF93BF93EF93A9
:10579000FF93E0910502F09106021995FF91EF91B8
:1057A000BF91AF919F918F917F916F915F914F9139
:1057B0003F912F910F900BBE0F900FBE0F901F9037
:1057C00018951F920F920FB60F9211240BB60F92DD
:1057D0002F933F934F935F936F937F938F939F93F9
:1057E000AF93BF93EF93FF938091C6059091C70548
:1057F000A091C805B091C905892B8A2B8B2BD1F1BB
:105800009091C505809100008927809300008091C8
:10581000C6059091C705A091C805B091C905181695
:1058200019061A061B069CF48091C6059091C705BF
:10583000A091C805B091C9050197A109B10980934C
:10584000C6059093C705A093C805B093C905FF91FD
:10585000EF91BF91AF919F918F917F916F915F91E8
:105860004F913F912F910F900BBE0F900FBE0F9055
:105870001F90189580910002E4EEF0E0E4919FEF14
:1058800090930002E230E9F040F4EE2389F0E13039
:1058900091F060E00E943A07DACFE43049F110F16C
:1058A000E530B9F7909173009D7F90937300F1CF2D
:1058B00010926E00EECF90916F009D7F90936F00DD
:1058C000E8CF909170009D7F9093700091E090934D
:1058D000B0009091B100987F94609093B1001092C5
:1058E000B300D7CF909171009D7F90937100D1CF7D
:1058F000909172009D7F90937200CBCF1F920F9278
:105900000FB60F9211240BB60F922F933F934F9324
:105910005F936F937F938F939F93AF93BF93EF9317
:10592000FF938DE797E00E946F09FF91EF91BF9180
:10593000AF919F918F917F916F915F914F913F9127
:105940002F910F900BBE0F900FBE0F901F901895C8
:105950001F920F920FB60F9211240BB60F922F9336
:105960003F934F935F936F937F938F939F93AF93E7
:10597000BF93EF93FF938DE797E00E94F508FF91A7
:10598000EF91BF91AF919F918F917F916F915F91B7
:105990004F913F912F910F900BBE0F900FBE0F9024
:1059A0001F9018951F920F920FB60F9211240BB6ED
:1059B0000F922F933F934F935F936F937F938F93A8
:1059C0009F93AF93BF93EF93FF938AE198E00E9478
:1059D0006F09FF91EF91BF91AF919F918F917F914F
:1059E0006F915F914F913F912F910F900BBE0F9050
:1059F0000FBE0F901F9018951F920F920FB60F9227
:105A000011240BB60F922F933F934F935F936F9395
:105A10007F938F939F93AF93BF93EF93FF938AE10D
:105A200098E00E94F508FF91EF91BF91AF919F918F
:105A30008F917F916F915F914F913F912F910F9037
:105A40000BBE0F900FBE0F901F9018951F920F92D4
:105A50000FB60F9211240BB60F922F933F934F93D3
:105A60005F936F937F938F939F93AF93BF93EF93C6
:105A7000FF9387EB98E00E946F09FF91EF91BF9130
:105A8000AF919F918F917F916F915F914F913F91D6
:105A90002F910F900BBE0F900FBE0F901F90189577
:105AA0001F920F920FB60F9211240BB60F922F93E5
:105AB0003F934F935F936F937F938F939F93AF9396
:105AC000BF93EF93FF9387EB98E00E94F508FF9157
:105AD000EF91BF91AF919F918F917F916F915F9166
